{
  "contractName": "NftMarketPlace",
  "abi": [
    {
      "inputs": [],
      "stateMutability": "nonpayable",
      "type": "constructor"
    },
    {
      "anonymous": false,
      "inputs": [
        {
          "indexed": true,
          "internalType": "address",
          "name": "owner",
          "type": "address"
        },
        {
          "indexed": true,
          "internalType": "address",
          "name": "approved",
          "type": "address"
        },
        {
          "indexed": true,
          "internalType": "uint256",
          "name": "tokenId",
          "type": "uint256"
        }
      ],
      "name": "Approval",
      "type": "event"
    },
    {
      "anonymous": false,
      "inputs": [
        {
          "indexed": true,
          "internalType": "address",
          "name": "owner",
          "type": "address"
        },
        {
          "indexed": true,
          "internalType": "address",
          "name": "operator",
          "type": "address"
        },
        {
          "indexed": false,
          "internalType": "bool",
          "name": "approved",
          "type": "bool"
        }
      ],
      "name": "ApprovalForAll",
      "type": "event"
    },
    {
      "anonymous": false,
      "inputs": [
        {
          "indexed": true,
          "internalType": "address",
          "name": "from",
          "type": "address"
        },
        {
          "indexed": true,
          "internalType": "address",
          "name": "to",
          "type": "address"
        },
        {
          "indexed": true,
          "internalType": "uint256",
          "name": "tokenId",
          "type": "uint256"
        }
      ],
      "name": "Transfer",
      "type": "event"
    },
    {
      "inputs": [
        {
          "internalType": "address",
          "name": "to",
          "type": "address"
        },
        {
          "internalType": "uint256",
          "name": "tokenId",
          "type": "uint256"
        }
      ],
      "name": "approve",
      "outputs": [],
      "stateMutability": "nonpayable",
      "type": "function"
    },
    {
      "inputs": [
        {
          "internalType": "address",
          "name": "owner",
          "type": "address"
        }
      ],
      "name": "balanceOf",
      "outputs": [
        {
          "internalType": "uint256",
          "name": "",
          "type": "uint256"
        }
      ],
      "stateMutability": "view",
      "type": "function"
    },
    {
      "inputs": [
        {
          "internalType": "uint256",
          "name": "tokenId",
          "type": "uint256"
        }
      ],
      "name": "getApproved",
      "outputs": [
        {
          "internalType": "address",
          "name": "",
          "type": "address"
        }
      ],
      "stateMutability": "view",
      "type": "function"
    },
    {
      "inputs": [
        {
          "internalType": "address",
          "name": "owner",
          "type": "address"
        },
        {
          "internalType": "address",
          "name": "operator",
          "type": "address"
        }
      ],
      "name": "isApprovedForAll",
      "outputs": [
        {
          "internalType": "bool",
          "name": "",
          "type": "bool"
        }
      ],
      "stateMutability": "view",
      "type": "function"
    },
    {
      "inputs": [],
      "name": "name",
      "outputs": [
        {
          "internalType": "string",
          "name": "",
          "type": "string"
        }
      ],
      "stateMutability": "view",
      "type": "function"
    },
    {
      "inputs": [
        {
          "internalType": "uint256",
          "name": "",
          "type": "uint256"
        }
      ],
      "name": "nftMarketPlace",
      "outputs": [
        {
          "internalType": "string",
          "name": "",
          "type": "string"
        }
      ],
      "stateMutability": "view",
      "type": "function"
    },
    {
      "inputs": [
        {
          "internalType": "uint256",
          "name": "tokenId",
          "type": "uint256"
        }
      ],
      "name": "ownerOf",
      "outputs": [
        {
          "internalType": "address",
          "name": "",
          "type": "address"
        }
      ],
      "stateMutability": "view",
      "type": "function"
    },
    {
      "inputs": [
        {
          "internalType": "address",
          "name": "from",
          "type": "address"
        },
        {
          "internalType": "address",
          "name": "to",
          "type": "address"
        },
        {
          "internalType": "uint256",
          "name": "tokenId",
          "type": "uint256"
        }
      ],
      "name": "safeTransferFrom",
      "outputs": [],
      "stateMutability": "nonpayable",
      "type": "function"
    },
    {
      "inputs": [
        {
          "internalType": "address",
          "name": "from",
          "type": "address"
        },
        {
          "internalType": "address",
          "name": "to",
          "type": "address"
        },
        {
          "internalType": "uint256",
          "name": "tokenId",
          "type": "uint256"
        },
        {
          "internalType": "bytes",
          "name": "_data",
          "type": "bytes"
        }
      ],
      "name": "safeTransferFrom",
      "outputs": [],
      "stateMutability": "nonpayable",
      "type": "function"
    },
    {
      "inputs": [
        {
          "internalType": "address",
          "name": "operator",
          "type": "address"
        },
        {
          "internalType": "bool",
          "name": "approved",
          "type": "bool"
        }
      ],
      "name": "setApprovalForAll",
      "outputs": [],
      "stateMutability": "nonpayable",
      "type": "function"
    },
    {
      "inputs": [
        {
          "internalType": "bytes4",
          "name": "interfaceId",
          "type": "bytes4"
        }
      ],
      "name": "supportsInterface",
      "outputs": [
        {
          "internalType": "bool",
          "name": "",
          "type": "bool"
        }
      ],
      "stateMutability": "view",
      "type": "function"
    },
    {
      "inputs": [],
      "name": "symbol",
      "outputs": [
        {
          "internalType": "string",
          "name": "",
          "type": "string"
        }
      ],
      "stateMutability": "view",
      "type": "function"
    },
    {
      "inputs": [
        {
          "internalType": "uint256",
          "name": "index",
          "type": "uint256"
        }
      ],
      "name": "tokenByIndex",
      "outputs": [
        {
          "internalType": "uint256",
          "name": "",
          "type": "uint256"
        }
      ],
      "stateMutability": "view",
      "type": "function"
    },
    {
      "inputs": [
        {
          "internalType": "address",
          "name": "owner",
          "type": "address"
        },
        {
          "internalType": "uint256",
          "name": "index",
          "type": "uint256"
        }
      ],
      "name": "tokenOfOwnerByIndex",
      "outputs": [
        {
          "internalType": "uint256",
          "name": "",
          "type": "uint256"
        }
      ],
      "stateMutability": "view",
      "type": "function"
    },
    {
      "inputs": [
        {
          "internalType": "uint256",
          "name": "tokenId",
          "type": "uint256"
        }
      ],
      "name": "tokenURI",
      "outputs": [
        {
          "internalType": "string",
          "name": "",
          "type": "string"
        }
      ],
      "stateMutability": "view",
      "type": "function"
    },
    {
      "inputs": [],
      "name": "totalSupply",
      "outputs": [
        {
          "internalType": "uint256",
          "name": "",
          "type": "uint256"
        }
      ],
      "stateMutability": "view",
      "type": "function"
    },
    {
      "inputs": [
        {
          "internalType": "address",
          "name": "from",
          "type": "address"
        },
        {
          "internalType": "address",
          "name": "to",
          "type": "address"
        },
        {
          "internalType": "uint256",
          "name": "tokenId",
          "type": "uint256"
        }
      ],
      "name": "transferFrom",
      "outputs": [],
      "stateMutability": "nonpayable",
      "type": "function"
    },
    {
      "inputs": [
        {
          "internalType": "string",
          "name": "_nftMarketPlace",
          "type": "string"
        }
      ],
      "name": "mint",
      "outputs": [],
      "stateMutability": "nonpayable",
      "type": "function"
    }
  ],
  "bytecode": "0x60806040523480156200001157600080fd5b506040518060400160405280600e81526020017f4e66744d61726b6574506c6163650000000000000000000000000000000000008152506040518060400160405280600781526020017f535445494e465400000000000000000000000000000000000000000000000000815250816000908051906020019062000096929190620000b8565b508060019080519060200190620000af929190620000b8565b505050620001cd565b828054620000c69062000197565b90600052602060002090601f016020900481019282620000ea576000855562000136565b82601f106200010557805160ff191683800117855562000136565b8280016001018555821562000136579182015b828111156200013557825182559160200191906001019062000118565b5b50905062000145919062000149565b5090565b5b80821115620001645760008160009055506001016200014a565b5090565b7f4e487b7100000000000000000000000000000000000000000000000000000000600052602260045260246000fd5b60006002820490506001821680620001b057607f821691505b60208210811415620001c757620001c662000168565b5b50919050565b61329180620001dd6000396000f3fe608060405234801561001057600080fd5b50600436106101165760003560e01c80636352211e116100a2578063b88d4fde11610071578063b88d4fde14610305578063c87b56dd14610321578063d85d3d2714610351578063e985e9c51461036d578063f147669f1461039d57610116565b80636352211e1461026b57806370a082311461029b57806395d89b41146102cb578063a22cb465146102e957610116565b806318160ddd116100e957806318160ddd146101b557806323b872dd146101d35780632f745c59146101ef57806342842e0e1461021f5780634f6ccce71461023b57610116565b806301ffc9a71461011b57806306fdde031461014b578063081812fc14610169578063095ea7b314610199575b600080fd5b61013560048036038101906101309190611f2e565b6103cd565b6040516101429190611f76565b60405180910390f35b610153610447565b604051610160919061202a565b60405180910390f35b610183600480360381019061017e9190612082565b6104d9565b60405161019091906120f0565b60405180910390f35b6101b360048036038101906101ae9190612137565b61055e565b005b6101bd610676565b6040516101ca9190612186565b60405180910390f35b6101ed60048036038101906101e891906121a1565b610683565b005b61020960048036038101906102049190612137565b6106e3565b6040516102169190612186565b60405180910390f35b610239600480360381019061023491906121a1565b610788565b005b61025560048036038101906102509190612082565b6107a8565b6040516102629190612186565b60405180910390f35b61028560048036038101906102809190612082565b610819565b60405161029291906120f0565b60405180910390f35b6102b560048036038101906102b091906121f4565b6108cb565b6040516102c29190612186565b60405180910390f35b6102d3610983565b6040516102e0919061202a565b60405180910390f35b61030360048036038101906102fe919061224d565b610a15565b005b61031f600480360381019061031a91906123c2565b610a2b565b005b61033b60048036038101906103369190612082565b610a8d565b604051610348919061202a565b60405180910390f35b61036b600480360381019061036691906124e6565b610b34565b005b6103876004803603810190610382919061252f565b610c37565b6040516103949190611f76565b60405180910390f35b6103b760048036038101906103b29190612082565b610ccb565b6040516103c4919061202a565b60405180910390f35b60007f780e9d63000000000000000000000000000000000000000000000000000000007bffffffffffffffffffffffffffffffffffffffffffffffffffffffff1916827bffffffffffffffffffffffffffffffffffffffffffffffffffffffff19161480610440575061043f82610d77565b5b9050919050565b6060600080546104569061259e565b80601f01602080910402602001604051908101604052809291908181526020018280546104829061259e565b80156104cf5780601f106104a4576101008083540402835291602001916104cf565b820191906000526020600020905b8154815290600101906020018083116104b257829003601f168201915b5050505050905090565b60006104e482610e59565b610523576040517f08c379a000000000000000000000000000000000000000000000000000000000815260040161051a90612642565b60405180910390fd5b6004600083815260200190815260200160002060009054906101000a900473ffffffffffffffffffffffffffffffffffffffff169050919050565b600061056982610819565b90508073ffffffffffffffffffffffffffffffffffffffff168373ffffffffffffffffffffffffffffffffffffffff1614156105da576040517f08c379a00000000000000000000000000000000000000000000000000000000081526004016105d1906126d4565b60405180910390fd5b8073ffffffffffffffffffffffffffffffffffffffff166105f9610ec5565b73ffffffffffffffffffffffffffffffffffffffff161480610628575061062781610622610ec5565b610c37565b5b610667576040517f08c379a000000000000000000000000000000000000000000000000000000000815260040161065e90612766565b60405180910390fd5b6106718383610ecd565b505050565b6000600880549050905090565b61069461068e610ec5565b82610f86565b6106d3576040517f08c379a00000000000000000000000000000000000000000000000000000000081526004016106ca906127f8565b60405180910390fd5b6106de838383611064565b505050565b60006106ee836108cb565b821061072f576040517f08c379a00000000000000000000000000000000000000000000000000000000081526004016107269061288a565b60405180910390fd5b600660008473ffffffffffffffffffffffffffffffffffffffff1673ffffffffffffffffffffffffffffffffffffffff168152602001908152602001600020600083815260200190815260200160002054905092915050565b6107a383838360405180602001604052806000815250610a2b565b505050565b60006107b2610676565b82106107f3576040517f08c379a00000000000000000000000000000000000000000000000000000000081526004016107ea9061291c565b60405180910390fd5b600882815481106108075761080661293c565b5b90600052602060002001549050919050565b6000806002600084815260200190815260200160002060009054906101000a900473ffffffffffffffffffffffffffffffffffffffff169050600073ffffffffffffffffffffffffffffffffffffffff168173ffffffffffffffffffffffffffffffffffffffff1614156108c2576040517f08c379a00000000000000000000000000000000000000000000000000000000081526004016108b9906129dd565b60405180910390fd5b80915050919050565b60008073ffffffffffffffffffffffffffffffffffffffff168273ffffffffffffffffffffffffffffffffffffffff16141561093c576040517f08c379a000000000000000000000000000000000000000000000000000000000815260040161093390612a6f565b60405180910390fd5b600360008373ffffffffffffffffffffffffffffffffffffffff1673ffffffffffffffffffffffffffffffffffffffff168152602001908152602001600020549050919050565b6060600180546109929061259e565b80601f01602080910402602001604051908101604052809291908181526020018280546109be9061259e565b8015610a0b5780601f106109e057610100808354040283529160200191610a0b565b820191906000526020600020905b8154815290600101906020018083116109ee57829003601f168201915b5050505050905090565b610a27610a20610ec5565b83836112cb565b5050565b610a3c610a36610ec5565b83610f86565b610a7b576040517f08c379a0000000000000000000000000000000000000000000000000000000008152600401610a72906127f8565b60405180910390fd5b610a8784848484611438565b50505050565b6060610a9882610e59565b610ad7576040517f08c379a0000000000000000000000000000000000000000000000000000000008152600401610ace90612b01565b60405180910390fd5b6000610ae1611494565b90506000815111610b015760405180602001604052806000815250610b2c565b80610b0b846114ab565b604051602001610b1c929190612b5d565b6040516020818303038152906040525b915050919050565b600b81604051610b449190612b81565b908152602001604051809103902060009054906101000a900460ff1615610ba0576040517f08c379a0000000000000000000000000000000000000000000000000000000008152600401610b9790612c0a565b60405180910390fd5b600a81908060018154018082558091505060019003906000526020600020016000909190919091509080519060200190610bdb929190611e1f565b5060006001600a80549050610bf09190612c59565b9050610bfc338261160c565b6001600b83604051610c0e9190612b81565b908152602001604051809103902060006101000a81548160ff0219169083151502179055505050565b6000600560008473ffffffffffffffffffffffffffffffffffffffff1673ffffffffffffffffffffffffffffffffffffffff16815260200190815260200160002060008373ffffffffffffffffffffffffffffffffffffffff1673ffffffffffffffffffffffffffffffffffffffff16815260200190815260200160002060009054906101000a900460ff16905092915050565b600a8181548110610cdb57600080fd5b906000526020600020016000915090508054610cf69061259e565b80601f0160208091040260200160405190810160405280929190818152602001828054610d229061259e565b8015610d6f5780601f10610d4457610100808354040283529160200191610d6f565b820191906000526020600020905b815481529060010190602001808311610d5257829003601f168201915b505050505081565b60007f80ac58cd000000000000000000000000000000000000000000000000000000007bffffffffffffffffffffffffffffffffffffffffffffffffffffffff1916827bffffffffffffffffffffffffffffffffffffffffffffffffffffffff19161480610e4257507f5b5e139f000000000000000000000000000000000000000000000000000000007bffffffffffffffffffffffffffffffffffffffffffffffffffffffff1916827bffffffffffffffffffffffffffffffffffffffffffffffffffffffff1916145b80610e525750610e51826117e6565b5b9050919050565b60008073ffffffffffffffffffffffffffffffffffffffff166002600084815260200190815260200160002060009054906101000a900473ffffffffffffffffffffffffffffffffffffffff1673ffffffffffffffffffffffffffffffffffffffff1614159050919050565b600033905090565b816004600083815260200190815260200160002060006101000a81548173ffffffffffffffffffffffffffffffffffffffff021916908373ffffffffffffffffffffffffffffffffffffffff160217905550808273ffffffffffffffffffffffffffffffffffffffff16610f4083610819565b73ffffffffffffffffffffffffffffffffffffffff167f8c5be1e5ebec7d5bd14f71427d1e84f3dd0314c0f7b2291e5b200ac8c7c3b92560405160405180910390a45050565b6000610f9182610e59565b610fd0576040517f08c379a0000000000000000000000000000000000000000000000000000000008152600401610fc790612cff565b60405180910390fd5b6000610fdb83610819565b90508073ffffffffffffffffffffffffffffffffffffffff168473ffffffffffffffffffffffffffffffffffffffff16148061104a57508373ffffffffffffffffffffffffffffffffffffffff16611032846104d9565b73ffffffffffffffffffffffffffffffffffffffff16145b8061105b575061105a8185610c37565b5b91505092915050565b8273ffffffffffffffffffffffffffffffffffffffff1661108482610819565b73ffffffffffffffffffffffffffffffffffffffff16146110da576040517f08c379a00000000000000000000000000000000000000000000000000000000081526004016110d190612d91565b60405180910390fd5b600073ffffffffffffffffffffffffffffffffffffffff168273ffffffffffffffffffffffffffffffffffffffff16141561114a576040517f08c379a000000000000000000000000000000000000000000000000000000000815260040161114190612e23565b60405180910390fd5b611155838383611850565b611160600082610ecd565b6001600360008573ffffffffffffffffffffffffffffffffffffffff1673ffffffffffffffffffffffffffffffffffffffff16815260200190815260200160002060008282546111b09190612c59565b925050819055506001600360008473ffffffffffffffffffffffffffffffffffffffff1673ffffffffffffffffffffffffffffffffffffffff16815260200190815260200160002060008282546112079190612e43565b92505081905550816002600083815260200190815260200160002060006101000a81548173ffffffffffffffffffffffffffffffffffffffff021916908373ffffffffffffffffffffffffffffffffffffffff160217905550808273ffffffffffffffffffffffffffffffffffffffff168473ffffffffffffffffffffffffffffffffffffffff167fddf252ad1be2c89b69c2b068fc378daa952ba7f163c4a11628f55a4df523b3ef60405160405180910390a46112c6838383611964565b505050565b8173ffffffffffffffffffffffffffffffffffffffff168373ffffffffffffffffffffffffffffffffffffffff16141561133a576040517f08c379a000000000000000000000000000000000000000000000000000000000815260040161133190612ee5565b60405180910390fd5b80600560008573ffffffffffffffffffffffffffffffffffffffff1673ffffffffffffffffffffffffffffffffffffffff16815260200190815260200160002060008473ffffffffffffffffffffffffffffffffffffffff1673ffffffffffffffffffffffffffffffffffffffff16815260200190815260200160002060006101000a81548160ff0219169083151502179055508173ffffffffffffffffffffffffffffffffffffffff168373ffffffffffffffffffffffffffffffffffffffff167f17307eab39ab6107e8899845ad3d59bd9653f200f220920489ca2b5937696c318360405161142b9190611f76565b60405180910390a3505050565b611443848484611064565b61144f84848484611969565b61148e576040517f08c379a000000000000000000000000000000000000000000000000000000000815260040161148590612f77565b60405180910390fd5b50505050565b606060405180602001604052806000815250905090565b606060008214156114f3576040518060400160405280600181526020017f30000000000000000000000000000000000000000000000000000000000000008152509050611607565b600082905060005b6000821461152557808061150e90612f97565b915050600a8261151e919061300f565b91506114fb565b60008167ffffffffffffffff81111561154157611540612297565b5b6040519080825280601f01601f1916602001820160405280156115735781602001600182028036833780820191505090505b5090505b600085146116005760018261158c9190612c59565b9150600a8561159b9190613040565b60306115a79190612e43565b60f81b8183815181106115bd576115bc61293c565b5b60200101907effffffffffffffffffffffffffffffffffffffffffffffffffffffffffffff1916908160001a905350600a856115f9919061300f565b9450611577565b8093505050505b919050565b600073ffffffffffffffffffffffffffffffffffffffff168273ffffffffffffffffffffffffffffffffffffffff16141561167c576040517f08c379a0000000000000000000000000000000000000000000000000000000008152600401611673906130bd565b60405180910390fd5b61168581610e59565b156116c5576040517f08c379a00000000000000000000000000000000000000000000000000000000081526004016116bc90613129565b60405180910390fd5b6116d160008383611850565b6001600360008473ffffffffffffffffffffffffffffffffffffffff1673ffffffffffffffffffffffffffffffffffffffff16815260200190815260200160002060008282546117219190612e43565b92505081905550816002600083815260200190815260200160002060006101000a81548173ffffffffffffffffffffffffffffffffffffffff021916908373ffffffffffffffffffffffffffffffffffffffff160217905550808273ffffffffffffffffffffffffffffffffffffffff16600073ffffffffffffffffffffffffffffffffffffffff167fddf252ad1be2c89b69c2b068fc378daa952ba7f163c4a11628f55a4df523b3ef60405160405180910390a46117e260008383611964565b5050565b60007f01ffc9a7000000000000000000000000000000000000000000000000000000007bffffffffffffffffffffffffffffffffffffffffffffffffffffffff1916827bffffffffffffffffffffffffffffffffffffffffffffffffffffffff1916149050919050565b61185b838383611af1565b600073ffffffffffffffffffffffffffffffffffffffff168373ffffffffffffffffffffffffffffffffffffffff16141561189e5761189981611af6565b6118dd565b8173ffffffffffffffffffffffffffffffffffffffff168373ffffffffffffffffffffffffffffffffffffffff16146118dc576118db8382611b3f565b5b5b600073ffffffffffffffffffffffffffffffffffffffff168273ffffffffffffffffffffffffffffffffffffffff1614156119205761191b81611cac565b61195f565b8273ffffffffffffffffffffffffffffffffffffffff168273ffffffffffffffffffffffffffffffffffffffff161461195e5761195d8282611d7d565b5b5b505050565b505050565b600061198a8473ffffffffffffffffffffffffffffffffffffffff16611dfc565b15611ae4578373ffffffffffffffffffffffffffffffffffffffff1663150b7a026119b3610ec5565b8786866040518563ffffffff1660e01b81526004016119d5949392919061319e565b6020604051808303816000875af1925050508015611a1157506040513d601f19601f82011682018060405250810190611a0e91906131ff565b60015b611a94573d8060008114611a41576040519150601f19603f3d011682016040523d82523d6000602084013e611a46565b606091505b50600081511415611a8c576040517f08c379a0000000000000000000000000000000000000000000000000000000008152600401611a8390612f77565b60405180910390fd5b805181602001fd5b63150b7a0260e01b7bffffffffffffffffffffffffffffffffffffffffffffffffffffffff1916817bffffffffffffffffffffffffffffffffffffffffffffffffffffffff191614915050611ae9565b600190505b949350505050565b505050565b6008805490506009600083815260200190815260200160002081905550600881908060018154018082558091505060019003906000526020600020016000909190919091505550565b60006001611b4c846108cb565b611b569190612c59565b9050600060076000848152602001908152602001600020549050818114611c3b576000600660008673ffffffffffffffffffffffffffffffffffffffff1673ffffffffffffffffffffffffffffffffffffffff168152602001908152602001600020600084815260200190815260200160002054905080600660008773ffffffffffffffffffffffffffffffffffffffff1673ffffffffffffffffffffffffffffffffffffffff168152602001908152602001600020600084815260200190815260200160002081905550816007600083815260200190815260200160002081905550505b6007600084815260200190815260200160002060009055600660008573ffffffffffffffffffffffffffffffffffffffff1673ffffffffffffffffffffffffffffffffffffffff16815260200190815260200160002060008381526020019081526020016000206000905550505050565b60006001600880549050611cc09190612c59565b9050600060096000848152602001908152602001600020549050600060088381548110611cf057611cef61293c565b5b906000526020600020015490508060088381548110611d1257611d1161293c565b5b906000526020600020018190555081600960008381526020019081526020016000208190555060096000858152602001908152602001600020600090556008805480611d6157611d6061322c565b5b6001900381819060005260206000200160009055905550505050565b6000611d88836108cb565b905081600660008573ffffffffffffffffffffffffffffffffffffffff1673ffffffffffffffffffffffffffffffffffffffff168152602001908152602001600020600083815260200190815260200160002081905550806007600084815260200190815260200160002081905550505050565b6000808273ffffffffffffffffffffffffffffffffffffffff163b119050919050565b828054611e2b9061259e565b90600052602060002090601f016020900481019282611e4d5760008555611e94565b82601f10611e6657805160ff1916838001178555611e94565b82800160010185558215611e94579182015b82811115611e93578251825591602001919060010190611e78565b5b509050611ea19190611ea5565b5090565b5b80821115611ebe576000816000905550600101611ea6565b5090565b6000604051905090565b600080fd5b600080fd5b60007fffffffff0000000000000000000000000000000000000000000000000000000082169050919050565b611f0b81611ed6565b8114611f1657600080fd5b50565b600081359050611f2881611f02565b92915050565b600060208284031215611f4457611f43611ecc565b5b6000611f5284828501611f19565b91505092915050565b60008115159050919050565b611f7081611f5b565b82525050565b6000602082019050611f8b6000830184611f67565b92915050565b600081519050919050565b600082825260208201905092915050565b60005b83811015611fcb578082015181840152602081019050611fb0565b83811115611fda576000848401525b50505050565b6000601f19601f8301169050919050565b6000611ffc82611f91565b6120068185611f9c565b9350612016818560208601611fad565b61201f81611fe0565b840191505092915050565b600060208201905081810360008301526120448184611ff1565b905092915050565b6000819050919050565b61205f8161204c565b811461206a57600080fd5b50565b60008135905061207c81612056565b92915050565b60006020828403121561209857612097611ecc565b5b60006120a68482850161206d565b91505092915050565b600073ffffffffffffffffffffffffffffffffffffffff82169050919050565b60006120da826120af565b9050919050565b6120ea816120cf565b82525050565b600060208201905061210560008301846120e1565b92915050565b612114816120cf565b811461211f57600080fd5b50565b6000813590506121318161210b565b92915050565b6000806040838503121561214e5761214d611ecc565b5b600061215c85828601612122565b925050602061216d8582860161206d565b9150509250929050565b6121808161204c565b82525050565b600060208201905061219b6000830184612177565b92915050565b6000806000606084860312156121ba576121b9611ecc565b5b60006121c886828701612122565b93505060206121d986828701612122565b92505060406121ea8682870161206d565b9150509250925092565b60006020828403121561220a57612209611ecc565b5b600061221884828501612122565b91505092915050565b61222a81611f5b565b811461223557600080fd5b50565b60008135905061224781612221565b92915050565b6000806040838503121561226457612263611ecc565b5b600061227285828601612122565b925050602061228385828601612238565b9150509250929050565b600080fd5b600080fd5b7f4e487b7100000000000000000000000000000000000000000000000000000000600052604160045260246000fd5b6122cf82611fe0565b810181811067ffffffffffffffff821117156122ee576122ed612297565b5b80604052505050565b6000612301611ec2565b905061230d82826122c6565b919050565b600067ffffffffffffffff82111561232d5761232c612297565b5b61233682611fe0565b9050602081019050919050565b82818337600083830152505050565b600061236561236084612312565b6122f7565b90508281526020810184848401111561238157612380612292565b5b61238c848285612343565b509392505050565b600082601f8301126123a9576123a861228d565b5b81356123b9848260208601612352565b91505092915050565b600080600080608085870312156123dc576123db611ecc565b5b60006123ea87828801612122565b94505060206123fb87828801612122565b935050604061240c8782880161206d565b925050606085013567ffffffffffffffff81111561242d5761242c611ed1565b5b61243987828801612394565b91505092959194509250565b600067ffffffffffffffff8211156124605761245f612297565b5b61246982611fe0565b9050602081019050919050565b600061248961248484612445565b6122f7565b9050828152602081018484840111156124a5576124a4612292565b5b6124b0848285612343565b509392505050565b600082601f8301126124cd576124cc61228d565b5b81356124dd848260208601612476565b91505092915050565b6000602082840312156124fc576124fb611ecc565b5b600082013567ffffffffffffffff81111561251a57612519611ed1565b5b612526848285016124b8565b91505092915050565b6000806040838503121561254657612545611ecc565b5b600061255485828601612122565b925050602061256585828601612122565b9150509250929050565b7f4e487b7100000000000000000000000000000000000000000000000000000000600052602260045260246000fd5b600060028204905060018216806125b657607f821691505b602082108114156125ca576125c961256f565b5b50919050565b7f4552433732313a20617070726f76656420717565727920666f72206e6f6e657860008201527f697374656e7420746f6b656e0000000000000000000000000000000000000000602082015250565b600061262c602c83611f9c565b9150612637826125d0565b604082019050919050565b6000602082019050818103600083015261265b8161261f565b9050919050565b7f4552433732313a20617070726f76616c20746f2063757272656e74206f776e6560008201527f7200000000000000000000000000000000000000000000000000000000000000602082015250565b60006126be602183611f9c565b91506126c982612662565b604082019050919050565b600060208201905081810360008301526126ed816126b1565b9050919050565b7f4552433732313a20617070726f76652063616c6c6572206973206e6f74206f7760008201527f6e6572206e6f7220617070726f76656420666f7220616c6c0000000000000000602082015250565b6000612750603883611f9c565b915061275b826126f4565b604082019050919050565b6000602082019050818103600083015261277f81612743565b9050919050565b7f4552433732313a207472616e736665722063616c6c6572206973206e6f74206f60008201527f776e6572206e6f7220617070726f766564000000000000000000000000000000602082015250565b60006127e2603183611f9c565b91506127ed82612786565b604082019050919050565b60006020820190508181036000830152612811816127d5565b9050919050565b7f455243373231456e756d657261626c653a206f776e657220696e646578206f7560008201527f74206f6620626f756e6473000000000000000000000000000000000000000000602082015250565b6000612874602b83611f9c565b915061287f82612818565b604082019050919050565b600060208201905081810360008301526128a381612867565b9050919050565b7f455243373231456e756d657261626c653a20676c6f62616c20696e646578206f60008201527f7574206f6620626f756e64730000000000000000000000000000000000000000602082015250565b6000612906602c83611f9c565b9150612911826128aa565b604082019050919050565b60006020820190508181036000830152612935816128f9565b9050919050565b7f4e487b7100000000000000000000000000000000000000000000000000000000600052603260045260246000fd5b7f4552433732313a206f776e657220717565727920666f72206e6f6e657869737460008201527f656e7420746f6b656e0000000000000000000000000000000000000000000000602082015250565b60006129c7602983611f9c565b91506129d28261296b565b604082019050919050565b600060208201905081810360008301526129f6816129ba565b9050919050565b7f4552433732313a2062616c616e636520717565727920666f7220746865207a6560008201527f726f206164647265737300000000000000000000000000000000000000000000602082015250565b6000612a59602a83611f9c565b9150612a64826129fd565b604082019050919050565b60006020820190508181036000830152612a8881612a4c565b9050919050565b7f4552433732314d657461646174613a2055524920717565727920666f72206e6f60008201527f6e6578697374656e7420746f6b656e0000000000000000000000000000000000602082015250565b6000612aeb602f83611f9c565b9150612af682612a8f565b604082019050919050565b60006020820190508181036000830152612b1a81612ade565b9050919050565b600081905092915050565b6000612b3782611f91565b612b418185612b21565b9350612b51818560208601611fad565b80840191505092915050565b6000612b698285612b2c565b9150612b758284612b2c565b91508190509392505050565b6000612b8d8284612b2c565b915081905092915050565b7f4572726f723a204e66744d61726b6574506c61636520616c726561647920657860008201527f6973747300000000000000000000000000000000000000000000000000000000602082015250565b6000612bf4602483611f9c565b9150612bff82612b98565b604082019050919050565b60006020820190508181036000830152612c2381612be7565b9050919050565b7f4e487b7100000000000000000000000000000000000000000000000000000000600052601160045260246000fd5b6000612c648261204c565b9150612c6f8361204c565b925082821015612c8257612c81612c2a565b5b828203905092915050565b7f4552433732313a206f70657261746f7220717565727920666f72206e6f6e657860008201527f697374656e7420746f6b656e0000000000000000000000000000000000000000602082015250565b6000612ce9602c83611f9c565b9150612cf482612c8d565b604082019050919050565b60006020820190508181036000830152612d1881612cdc565b9050919050565b7f4552433732313a207472616e736665722066726f6d20696e636f72726563742060008201527f6f776e6572000000000000000000000000000000000000000000000000000000602082015250565b6000612d7b602583611f9c565b9150612d8682612d1f565b604082019050919050565b60006020820190508181036000830152612daa81612d6e565b9050919050565b7f4552433732313a207472616e7366657220746f20746865207a65726f2061646460008201527f7265737300000000000000000000000000000000000000000000000000000000602082015250565b6000612e0d602483611f9c565b9150612e1882612db1565b604082019050919050565b60006020820190508181036000830152612e3c81612e00565b9050919050565b6000612e4e8261204c565b9150612e598361204c565b9250827fffffffffffffffffffffffffffffffffffffffffffffffffffffffffffffffff03821115612e8e57612e8d612c2a565b5b828201905092915050565b7f4552433732313a20617070726f766520746f2063616c6c657200000000000000600082015250565b6000612ecf601983611f9c565b9150612eda82612e99565b602082019050919050565b60006020820190508181036000830152612efe81612ec2565b9050919050565b7f4552433732313a207472616e7366657220746f206e6f6e20455243373231526560008201527f63656976657220696d706c656d656e7465720000000000000000000000000000602082015250565b6000612f61603283611f9c565b9150612f6c82612f05565b604082019050919050565b60006020820190508181036000830152612f9081612f54565b9050919050565b6000612fa28261204c565b91507fffffffffffffffffffffffffffffffffffffffffffffffffffffffffffffffff821415612fd557612fd4612c2a565b5b600182019050919050565b7f4e487b7100000000000000000000000000000000000000000000000000000000600052601260045260246000fd5b600061301a8261204c565b91506130258361204c565b92508261303557613034612fe0565b5b828204905092915050565b600061304b8261204c565b91506130568361204c565b92508261306657613065612fe0565b5b828206905092915050565b7f4552433732313a206d696e7420746f20746865207a65726f2061646472657373600082015250565b60006130a7602083611f9c565b91506130b282613071565b602082019050919050565b600060208201905081810360008301526130d68161309a565b9050919050565b7f4552433732313a20746f6b656e20616c7265616479206d696e74656400000000600082015250565b6000613113601c83611f9c565b915061311e826130dd565b602082019050919050565b6000602082019050818103600083015261314281613106565b9050919050565b600081519050919050565b600082825260208201905092915050565b600061317082613149565b61317a8185613154565b935061318a818560208601611fad565b61319381611fe0565b840191505092915050565b60006080820190506131b360008301876120e1565b6131c060208301866120e1565b6131cd6040830185612177565b81810360608301526131df8184613165565b905095945050505050565b6000815190506131f981611f02565b92915050565b60006020828403121561321557613214611ecc565b5b6000613223848285016131ea565b91505092915050565b7f4e487b7100000000000000000000000000000000000000000000000000000000600052603160045260246000fdfea2646970667358221220e73986a274dbf15d9952fbfaf01449cc6f748ae498b49ee5570cdf8745c36c3c64736f6c634300080b0033",
  "immutableReferences": {},
  "source": "// SPDX-License-Identifier: MIT\r\npragma solidity >=0.4.22 <0.9.0;\r\n\r\nimport \"../node_modules/openzeppelin-solidity/contracts/token/ERC721/extensions/ERC721Enumerable.sol\";\r\n\r\ncontract NftMarketPlace is ERC721Enumerable {\r\n    // array to store NFT's\r\n    string[] public nftMarketPlace;\r\n\r\n    mapping(string => bool) _nftMarketPlaceExists;\r\n\r\n    function mint(string memory _nftMarketPlace) public {\r\n        require(\r\n            !_nftMarketPlaceExists[_nftMarketPlace],\r\n            \"Error: NftMarketPlace already exists\"\r\n        );\r\n\r\n        nftMarketPlace.push(_nftMarketPlace);\r\n        uint256 _id = nftMarketPlace.length - 1;\r\n\r\n        _mint(msg.sender, _id);\r\n\r\n        _nftMarketPlaceExists[_nftMarketPlace] = true;\r\n    }\r\n\r\n    constructor() ERC721(\"NftMarketPlace\", \"STEINFT\") {}\r\n}\r\n",
  "sourcePath": "E:\\Development\\_Personal\\Blockchain\\ico-nft-smart-contract\\contracts\\NftMarketPlace.sol",
  "compiler": {
    "name": "solc",
    "version": "0.8.11+commit.d7f03943.Emscripten.clang"
  },
  "schemaVersion": "3.4.4",
  "updatedAt": "2022-02-28T18:24:46.353Z",
  "devdoc": {
    "kind": "dev",
    "methods": {
      "approve(address,uint256)": {
        "details": "See {IERC721-approve}."
      },
      "balanceOf(address)": {
        "details": "See {IERC721-balanceOf}."
      },
      "getApproved(uint256)": {
        "details": "See {IERC721-getApproved}."
      },
      "isApprovedForAll(address,address)": {
        "details": "See {IERC721-isApprovedForAll}."
      },
      "name()": {
        "details": "See {IERC721Metadata-name}."
      },
      "ownerOf(uint256)": {
        "details": "See {IERC721-ownerOf}."
      },
      "safeTransferFrom(address,address,uint256)": {
        "details": "See {IERC721-safeTransferFrom}."
      },
      "safeTransferFrom(address,address,uint256,bytes)": {
        "details": "See {IERC721-safeTransferFrom}."
      },
      "setApprovalForAll(address,bool)": {
        "details": "See {IERC721-setApprovalForAll}."
      },
      "supportsInterface(bytes4)": {
        "details": "See {IERC165-supportsInterface}."
      },
      "symbol()": {
        "details": "See {IERC721Metadata-symbol}."
      },
      "tokenByIndex(uint256)": {
        "details": "See {IERC721Enumerable-tokenByIndex}."
      },
      "tokenOfOwnerByIndex(address,uint256)": {
        "details": "See {IERC721Enumerable-tokenOfOwnerByIndex}."
      },
      "tokenURI(uint256)": {
        "details": "See {IERC721Metadata-tokenURI}."
      },
      "totalSupply()": {
        "details": "See {IERC721Enumerable-totalSupply}."
      },
      "transferFrom(address,address,uint256)": {
        "details": "See {IERC721-transferFrom}."
      }
    },
    "version": 1
  },
  "userdoc": {
    "kind": "user",
    "methods": {},
    "version": 1
  }
}